:1000000000020020890200003B0200003B020000C9
:100010003B0200003B0200003B0200000000000029
:100020000000000000000000000000003B02000093
:100030003B020000000000003B0200003B02000009
:1000400080B56948016851F002010160016851F012
:10005000040101606548016851F0030101606448D2
:10006000016851F003010160002062490860F0203E
:1000700061490860F020614908600020604908601B
:10008000022000F02BF8282000F028F80C2000F0C7
:1000900025F801BD10B50C00012803D1802000F027
:1000A0001DF80DE0022803D1C02000F017F807E08A
:1000B000802000F013F803E0207800F03EF8641C84
:1000C00020780028F8D110BD03E0491E0029FCD19A
:1000D000401E002801D0C821F8E7704770B5040021
:1000E000474D286810F00F002100C9B211F0F0014F
:1000F000084328603F4E002030600220306002201C
:10010000FFF7E2FF002030600220FFF7DDFF2868E4
:1001100010F00F00E4B250EA0410286002203060B2
:100120000220FFF7D1FF002030600220FFF7CCFF54
:10013000002030600020286070BD70B50400304D94
:10014000286810F00F002100C9B211F0F001084337
:100150002860284E01203060306850F00200306086
:100160000220FFF7B1FF012030600220FFF7ACFF53
:10017000286810F00F00E4B250EA041028603068DC
:1001800050F0020030600220FFF79EFF0120306037
:100190000220FFF799FF002030600020286070BD2A
:1001A00080B50120FFF79AFF01BD80B5FFF748FF3A
:1001B00014490120FFF76EFF13490220FFF76AFF81
:1001C0009620FFF781FFFFF7EBFF10490120FFF7B3
:1001D00061FF0F490220FFF75DFF9620FFF774FFD4
:1001E000FFF7DEFFE4E7000008E10F4000540040A5
:1001F0001C550040FC530040006400401C6500405A
:10020000FC6300405C0200007C0200006C02000005
:100210009402000000F00DF8002801D0AFF3008038
:10022000AFF300800020AFF30080FFF7BEFF00F0C7
:1002300002F80120704700F001B8FEE70746384693
:1002400000F002F8FBE7000080B5AFF30080024A3F
:1002500011001820ABBEFBE72600020034424954CF
:100260002031367832204C434400000041524D206A
:10027000434F52544558204D34000000494E5445D8
:100280005246414345000000AFF30080AFF30080C9
:0C029000FFF7C0FF4C4D335333323800F1
:04000005000002896C
:00000001FF
