:1000000000020020D9000000B7000000B700000087
:10001000B7000000B7000000B700000000000000BB
:10002000000000000000000000000000B700000019
:10003000B700000000000000B7000000B70000009B
:100040000F48016851F002010160FF200D4908606E
:100050000D490860002100E0491CB1F5C87FFBDBB9
:100060000A490860002200E0521CB2F5C87FFBDBA1
:1000700000220A600021B1F5C87FEBDA491CFAE7DB
:1000800008E10F40005400401C550040FC53004064
:1000900000F00DF8002801D0AFF30080AFF300802E
:1000A0000020AFF30080FFF7CBFF00F002F8012043
:1000B000704700F001B8FEE70746384600F002F846
:1000C000FBE7000080B5AFF30080024A1100182062
:1000D000ABBEFBE726000200AFF30080AFF3008069
:0400E000FFF7D6FF51
:04000005000000D91E
:00000001FF
