:100000000002002059020000F3010000F30100008B
:10001000F3010000F3010000F30100000000000004
:10002000000000000000000000000000F3010000DC
:10003000F301000000000000F3010000F3010000E4
:1000400038B55048016851F002010160016851F073
:10005000040101604C48016851F0030101604B4804
:10006000016851F003010160002049490860F02057
:1000700048490860F0204849086000204749086066
:1000800000F092F8464C2100012000F098F8454D10
:100090002900022000F093F82100012000F08FF8E1
:1000A0002900022000F08BF8F6E703E0491E002942
:1000B000FCD1401E002801D0C821F8E7704770B578
:1000C0000400364D286810F00F002100C9B211F06D
:1000D000F001084328602E4E00203060022030607E
:1000E0000220FFF7E2FF002030600220FFF7DDFF73
:1000F000286810F00F00E4B250EA041028600220D3
:1001000030600220FFF7D1FF002030600220FFF7AF
:10011000CCFF002030600020286070BD70B5040066
:100120001E4D286810F00F002100C9B211F0F00137
:1001300008432860164E01203060306850F00200FD
:1001400030600220FFF7B1FF012030600220FFF78E
:10015000ACFF286810F00F00E4B250EA04102860E9
:10016000306850F0020030600220FFF79EFF01204F
:1001700030600220FFF799FF0020306000202860E7
:1001800070BD000008E10F40005400401C550040C5
:10019000FC530040006400401C650040FC630040CC
:1001A0004C0200003C02000080B50220FFF787FFF0
:1001B0002820FFF784FF0C20FFF781FF01BD10B559
:1001C0000C00012803D18020FFF779FF0DE0022801
:1001D00003D1C020FFF773FF07E08020FFF76FFF18
:1001E00003E02078FFF79AFF641C20780028F8D1FC
:1001F00010BDFEE700F00DF8002801D0AFF300803D
:10020000AFF300800020AFF30080FFF719FF00F08C
:1002100002F80120704700F001B800000746384698
:1002200000F002F8FBE7000080B5AFF30080024A5F
:1002300011001820ABBEFBE72600020041524D2002
:100240004D3320434F525445580000003442495426
:10025000204C434400000000AFF30080AFF3008067
:04026000FFF7C8FFDD
:04000005000002599C
:00000001FF
