:1000000000020020E9000000C7000000C700000057
:10001000C7000000C7000000C7000000000000008B
:10002000000000000000000000000000C700000009
:10003000C700000000000000C7000000C70000006B
:100040001348016851F0020101601248016851F043
:100050003F0101601048016851F03F01016000203C
:1000600000E0401CB0F5C87FFBDB0C48016851F094
:100070003F010160002100E0491CB1F5C87FFBDBB6
:10008000002101600020B0F5C87FE8DA401CFAE7E3
:1000900008E10F40005400401C550040FC53004054
:1000A00000F00DF8002801D0AFF30080AFF300801E
:1000B0000020AFF30080FFF7C3FF00F002F801203B
:1000C000704700F001B8FEE70746384600F002F836
:1000D000FBE7000080B5AFF30080024A1100182052
:1000E000ABBEFBE726000200AFF30080AFF3008059
:0400F000FFF7D6FF41
:04000005000000E90E
:00000001FF
