:1000000000020020D5000000B3000000B300000093
:10001000B3000000B3000000B300000000000000C7
:10002000000000000000000000000000B30000001D
:10003000B300000000000000B3000000B3000000A7
:100040000F48016851F0020101605FF0FF300D4977
:100050000860002100E0491CB1F5C87FFBDB0A49BC
:100060000860002200E0521CB2F5C87FFBDB0022D2
:100070000A600021B1F5C87FEBDA491CFAE700BF3E
:1000800008E10F4000540040FC53004000F00DF820
:10009000002801D0AFF30080AFF300800020AFF361
:1000A0000080FFF7CDFF00F002F80120704700F05C
:1000B00001B8FEE70746384600F002F8FBE700000B
:1000C00080B5AFF30080024A11001820ABBEFBE7F9
:1000D00026000200AFF30080AFF30080FFF7D6FFE9
:04000005000000D522
:00000001FF
