:1000000000020020D9010000B7010000B701000084
:10001000B7010000B7010000B701000000000000B8
:10002000000000000000000000000000B701000018
:10003000B701000000000000B7010000B701000098
:1000400080B54048016851F0020101603E480168F6
:1000500051F03F0101603D48016851F03F010160EE
:1000600000203B49086000F077F83A4800F085F836
:10007000FEE703E0491E0029FCD1401E002802D003
:1000800042F6DE61F7E7704738B50500304C20686E
:1000900010F00200206020682900C9B2891011F018
:1000A0003C0108432060206850F0020020600120DD
:1000B000FFF7DFFF206810F0010020602068EDB23C
:1000C000AD0015F03C0505432560206850F00200A6
:1000D00020600120FFF7CDFF206810F0FC002060B9
:1000E0000020206031BD38B50500194C206850F063
:1000F0000100206020682900C9B2891011F03C017C
:1001000008432060206850F0020020600120FFF7C3
:10011000B0FF206810F0010020602068EDB2AD0053
:1001200015F03C0505432560206850F00200206072
:100130000120FFF79EFF206810F0FD0020600020E6
:10014000206031BD08E10F40005400401C550040C4
:10015000FC530040E401000080B52020FFF794FF2D
:100160002820FFF791FF0C20FFF78EFF0120FFF7FB
:100170008BFF8020FFF788FF01BD10B5040003E06E
:100180002078FFF7B0FF641C20780028F8D110BD5C
:1001900000F00DF8002801D0AFF30080AFF300802D
:1001A0000020AFF30080FFF74BFF00F002F80120C2
:1001B000704700F001B8FEE70746384600F002F845
:1001C000FBE7000080B5AFF30080024A1100182061
:1001D000ABBEFBE726000200AFF30080AFF3008068
:0C01E000FFF7D6FF68656C6C6F00000034
:04000005000001D91D
:00000001FF
